S01C00005561727453657269616C41706C69636174696F6E2E7372656308
S113000071C0000086C0000084C0000082C00000EF
S113001080C000007EC000007CC000007AC00000E8
S113002078C0000076C0000074C0000072C00000F8
S113003070C000006EC000006CC000006AC0000008
S113004068C0000066C0000064C0000062C0000018
S113005060C000005EC000005CC000005AC0000028
S113006058C0000057C0000054C0000052C0000037
S113007050C000004EC000004CC000004AC0000048
S113008048C0000046C0000044C0000042C0000058
S113009040C000003EC000003CC000003AC0000068
S11300A038C0000036C0000034C0000032C0000078
S11300B030C000002EC000002CC000002AC0000088
S11300C028C0000026C0000024C0000022C0000098
S11300D020C000001EC000001CC000001AC00000A8
S11300E018C0000011241FBECFEFD1E2DEBFCDBF88
S11300F000E00CBF12E0A0E0B2E0E4EDF2E000E0CA
S11301000BBF02C007900D92A033B107D9F73FD0BF
S1130110DFC076CF1F920F920FB60F9211240BB649
S11301200F922F933F934F935F936F937F938F938C
S11301309F93AF93BF93EF93FF938091C600813356
S113014049F480E092E094D081E38AD08AE092E09E
S11301508FD00AC0803341F480E092E089D080E3FC
S11301607FD08CE192E084D0FF91EF91BF91AF9169
S11301709F918F917F916F915F914F913F912F91BB
S11301800F900BBE0F900FBE0F901F90189521E09B
S113019048E060E875E280E090E002D07894FFCF18
S11301A0CF92DF92EF92FF920F931F93522F8B0106
S11301B09C010E561109210931090339114C2140C2
S11301C0310508F046C04550443008F042C020E2F2
S11301D02093C00028E12093C100552329F0E1ECCD
S11301E0F0E0208120682083440F4093C2006B011B
S11301F07C0120E8C20E24E8D21E2EE1E21EF11C8E
S1130200CC0CDD1CEE1CFF1CCC0CDD1CEE1CFF1CFE
S1130210CC0CDD1CEE1CFF1CDC01CB01880F991FEC
S1130220AA1FBB1F880F991FAA1FBB1F9C01AD01EA
S1130230220F331F441F551F220F331F441F551F06
S1130240C701B60123D0215031093093C500209352
S1130250C4001F910F91FF90EF90DF90CF9008950D
S1130260E0ECF0E0908195FFFDCF8093C600089507
S1130270CF93DF93EC018881882329F02196F0DF66
S113028089918111FCCFDF91CF910895A1E21A2EBB
S1130290AA1BBB1BFD010DC0AA1FBB1FEE1FFF1F26
S11302A0A217B307E407F50720F0A21BB30BE40B76
S11302B0F50B661F771F881F991F1A9469F76095BD
S11302C07095809590959B01AC01BD01CF01089577
S10702D0F894FFCFCC
S11302D4436F6D6D616E643A2000200A5379737420
S11302E4656D206E6F77204F4E0D0A00200A5379F6
S11302F47374656D206E6F77204F46460D0A0000B7
S9030000FC
