:1000000072C00000EAC2000070C2000018C2000006
:100010009AC0000098C0000096C0000094C0000084
:1000200092C0000090C000008EC000008CC0000094
:100030008AC0000088C0000086C0000084C00000A4
:1000400082C0000080C000007EC000007CC00000B4
:100050007AC0000078C0000076C0000054C30000E1
:1000600072C0000064C300006EC000006CC00000DD
:100070006AC0000068C0000066C0000064C00000E4
:1000800062C0000060C000005EC000005CC00000F4
:100090005AC0000058C0000056C0000054C0000004
:1000A00052C0000050C000004EC000004CC0000014
:1000B0004AC0000048C0000046C0000044C0000024
:1000C00042C0000040C000003EC000003CC0000034
:1000D0003AC0000038C0000036C0000034C0000044
:1000E00032C00000CA0411241FBECFEFD1E2DEBF30
:1000F000CDBF00E00CBF12E0A0E0B2E0EEE1F6E11F
:1001000000E00BBF02C007900D92AA33B107D9F7E8
:1001100022E0AAE3B2E001C01D92A53AB207E1F7DE
:1001200010E0C3E7D0E000E006C021970109802F6E
:10013000FE010E94050BC237D10780E00807A9F72E
:1001400003D00C940D0B5CCFCF93DF93CDB7DEB70C
:10015000C254D1090FB6F894DEBF0FBECDBF21E067
:1001600048E060E875E280E090E098D036D31092E5
:1001700040021092410210924202109243021092E9
:10018000450282E0809348021092460210923C029F
:1001900010923D0210923E0210923F0210924402D1
:1001A00082E080934702CE01059643E06CE00E9416
:1001B000210ACE01089641E06CE10E94210ACE019D
:1001C0000B9649E452E06CE372E0F0D39E012B5FA2
:1001D0003F4FCE010B96B90180D59E01285F3F4F5E
:1001E000CE010B96B90179D5CE0146966CE372E04B
:1001F000A3D619821A821B821C8289819A81AB81C3
:10020000BC810196A11DB11D89839A83AB83BC83F8
:1002100089819A81AB81BC8180349D40A340B10526
:1002200081F480913A02882361F0CE01469625E060
:100230004CE166E072D7CE01469627E04CE066E0DE
:100240006CD789819A81AB81BC8180389A41A64064
:10025000B10581F480913A02882361F0CE0146967F
:1002600025E04CE066E059D7CE01469627E04CE108
:1002700066E053D789819A81AB81BC8180389A41ED
:10028000A640B10521F419821A821B821C82CE017C
:10029000469682D7CE010B9652D4AFCFCF92DF9243
:1002A000EF92FF920F931F93CF93DF9300D000D074
:1002B000CDB7DEB769837A838B839C834D832E838E
:1002C00089819A81AB81BC818E369105A105B105EA
:1002D00008F467C089819A81AB81BC818130924CDE
:1002E000A140B10508F05DC08D81853008F459C08A
:1002F0008D81893008F055C080EC90E020E2FC014F
:10030000208381EC90E028E1FC0120838E8188230A
:1003100049F081EC90E021EC30E0F9012081206887
:10032000FC01208382EC90E02D812550220FFC01FE
:10033000208304EC10E089819A81AB81BC818058D4
:100340009B47A14EBF4F880F991FAA1FBB1F880F45
:10035000991FAA1FBB1F880F991FAA1FBB1F6C01E3
:100360007D0189819A81AB81BC81880F991FAA1F69
:10037000BB1F880F991FAA1FBB1F880F991FAA1F99
:10038000BB1F880F991FAA1FBB1F9C01AD01C7018E
:10039000B6010E94CF0ADA01C9010197F8019183E1
:1003A0008083000026960FB6F894DEBF0FBECDBF47
:1003B000DF91CF911F910F91FF90EF90DF90CF9041
:1003C0000895CF93DF931F92CDB7DEB7898380EC7A
:1003D00090E0FC018081882F90E08072992721E0D5
:1003E000892B09F020E0222309F0F1CF86EC90E080
:1003F0002981FC01208300000F90DF91CF910895A7
:10040000CF93DF931F921F92CDB7DEB79A83898374
:1004100089819A81FC018081882359F089819A81A0
:10042000FC018081CEDF89819A8101969A8389833C
:10043000EFCF00000F900F90DF91CF9108951F92A2
:100440000F9200905F000F92112400905B000F92BA
:100450002F933F938F939F93AF93BF93EF93FF930C
:10046000CF93DF93CDB7DEB7809148028130D9F4C6
:100470008091400290914102A0914202B0914302CA
:1004800081608093400290934102A0934202B09316
:10049000430282E290E022E230E0F9012081246010
:1004A000FC01208305C080913B02816080933B0268
:1004B0008DE390E02DE330E0F90120812B7FFC01FA
:1004C00020830000DF91CF91FF91EF91BF91AF9119
:1004D0009F918F913F912F910F9000925B000F9011
:1004E00000925F000F901F9018951F920F9200903E
:1004F0005F000F92112400905B000F922F933F93A7
:100500008F939F93AF93BF93EF93FF93CF93DF931B
:10051000CDB7DEB780914702882321F580913C0258
:1005200090913D02A0913E02B0913F022091440281
:10053000222F30E004C0B695A795979587952A9508
:10054000D2F781709927AA27BB27892B8A2B8B2B5F
:1005500049F082E290E022E230E0F90120812E7F32
:10056000FC012083809148028130A9F480914002EF
:1005700090914102A0914202B0914302880F991FCD
:10058000AA1FBB1F8093400290934102A093420296
:10059000B093430205C080913B02880F80933B02D9
:1005A0008DE390E02DE330E0F90120812460FC012F
:1005B00020830000DF91CF91FF91EF91BF91AF9128
:1005C0009F918F913F912F910F9000925B000F9020
:1005D00000925F000F901F9018951F920F9200904D
:1005E0005F000F92112400905B000F922F933F93B6
:1005F0004F935F936F937F938F939F93AF93BF932B
:10060000EF93FF93CF93DF93CDB7DEB78DE390E009
:100610002DE330E0F90120812B7FFC0120838091C4
:100620004702882311F582E290E022E230E0F901EE
:1006300020812160FC012083809144028F5F8093A0
:100640004402809144028C3181F4809146028F5F94
:10065000809346021092440280914602823029F42F
:100660001092460282E080934702809148028130D6
:10067000E9F4809145028F5F8093450282E290E029
:1006800022E230E0F90120812B7FFC012083809160
:100690004502823101F583E08093480210923B02CB
:1006A00060E472E089E492E0F3D015C080913B02EF
:1006B000882F90E08F7099270E9769F41092450269
:1006C0001092400210924102109242021092430294
:1006D00081E0809348020000DF91CF91FF91EF917C
:1006E000BF91AF919F918F917F916F915F914F914A
:1006F0003F912F910F9000925B000F9000925F004E
:100700000F901F9018951F920F9200905F000F920C
:100710001124CF93DF93CDB7DEB700000000DF9147
:10072000CF910F9000925F000F901F9018951F922D
:100730000F9200905F000F92112400905B000F92C7
:100740002F933F934F935F936F937F938F939F93D9
:10075000AF93BF93EF93FF93CF93DF93CDB7DEB704
:1007600086EC90E0FC01808180939C0280919C0249
:10077000813361F48AE092E043DE80919C0221DEC5
:1007800084E192E03DDE81E080933A0280919C0218
:10079000803359F48AE092E033DE80919C0211DECE
:1007A00086E292E02DDE10923A020000DF91CF91B6
:1007B000FF91EF91BF91AF919F918F917F916F9139
:1007C0005F914F913F912F910F9000925B000F909E
:1007D00000925F000F901F901895CF93DF93CDB7D5
:1007E000DEB78AE290E02AE230E0F9012081FC01E4
:1007F00020838DE390E02DE330E0F9012081236038
:10080000FC01208389E690E029E630E0F9012081AF
:100810002E60FC01208378940000DF91CF91089531
:10082000CF93DF9300D01F92CDB7DEB79C838B832D
:100830008B819C81FC0110828B819C81FC01118247
:100840008B819C81FC0112821A82198289819A8192
:100850004497B4F42B813C8189819A81880F991F38
:10086000880F991F820F931F0396FC01108211823B
:100870001282138289819A8101969A838983E6CFB5
:1008800000000F900F900F900F90DF91CF9108957F
:10089000CF93DF9300D01F92CDB7DEB79A838983C1
:1008A0007C836B8389819A81FC018081882F90E011
:1008B000019624E130E0B9015FD69C0189819A81DB
:1008C000FC018181882F90E028173907F1F1898197
:1008D0009A81FC01808121E0280F89819A81FC01A5
:1008E000208389819A81FC0190818DEC989F812DD4
:1008F0001124282F22952F70822F880F880F282FE0
:10090000220F220F820F292F281B89819A81FC0137
:10091000208389819A81FC018081282F30E08B819E
:100920009C81FC0180819181A281B38149815A819E
:10093000220F331F220F331F240F351F2D5F3F4F10
:10094000F90180839183A283B38300000F900F90FD
:100950000F900F90DF91CF910895CF93DF9300D048
:100960001F92CDB7DEB79A8389837C836B8389819D
:100970009A81019739F48B819C81019619F489E45D
:1009800092E04EDF00000F900F900F900F90DF91DC
:10099000CF910895CF93DF93CDB7DEB76FEF7FEFA1
:1009A00081E090E0DADFDF91CF910895CF93DF937C
:1009B000CDB7DEB727970FB6F894DEBF0FBECDBF19
:1009C0009B838A837D836C835F834E838A819B8133
:1009D0002C813D81FC01318320838A819B812E8182
:1009E0003F81FC01338322838AE290E02AE230E0F7
:1009F000F90120812B7FFC01208389E690E029E624
:100A000030E0F9012081FC0120838A819B81FC0177
:100A1000148219828981823088F48981882F90E03C
:100A20002A813B81880F991F820F931F0596FC0135
:100A30001182108289818F5F8983ECCF0000279615
:100A40000FB6F894DEBF0FBECDBFDF91CF910895F2
:100A5000EF92FF920F931F93CF93DF93CDB7DEB743
:100A60002D970FB6F894DEBF0FBECDBF9B878A8748
:100A70007D876C8787E090E0A0E0B0E08A839B836D
:100A8000AC83BD831E821F821886198619828981D4
:100A90008E3008F046C08C859D85FC012081318117
:100AA000428153818981682F70E08A819B81AC816A
:100AB000BD8104C0880F991FAA1FBB1F6A95D2F77A
:100AC00082239323A423B5238E839F83A887B9878A
:100AD0008981282F30E08A819B81AC81BD817C0196
:100AE0008D0104C0EE0CFF1C001F111F2A95D2F7C8
:100AF000A80197018E819F81A885B985281739079C
:100B00004A075B0741F08E819F81A885B985892BB3
:100B10008A2B8B2B11F480E005C089818F5F89833C
:100B2000B6CF81E02D960FB6F894DEBF0FBECDBFD5
:100B3000DF91CF911F910F91FF90EF900895CF9388
:100B4000DF931F921F92CDB7DEB79A838983898185
:100B50009A81FC018281938168D1982F81E0992349
:100B600009F480E0882321F189819A81FC01828146
:100B700093816DE972E087D189819A816DE972E094
:100B800067DF8823A9F089819A816DE972E0D3D06B
:100B90009093A2028093A10289819A8161EA72E016
:100BA0001FD1882329F089819A8161EA72E006D0F9
:100BB00000000F900F90DF91CF9108950F931F9336
:100BC000CF93DF9300D000D0CDB7DEB79C838B836B
:100BD0007E836D8381E089838981833048F58D81AF
:100BE0009E81FC01808191818C010F711127898187
:100BF000882F90E02B813C81880F991F820F931FD3
:100C00000596FC018081918146D4882F90E021E0F7
:100C10000817190709F020E0222331F08B819C810D
:100C20002981FC0124834EC089818F5F8983D4CFC1
:100C30001A828A818A3008F045C08D819E81FC012C
:100C4000808191819C012F7133278A81882F90E0C8
:100C500080509E4FFC018081882F90E02817390733
:100C600069F58A81882F90E0009719F0019799F033
:100C700024C08B819C81FC018481882F90E02B8192
:100C80003C81880F991F820F931F0596FC0180817C
:100C9000918143D412C08B819C81FC018481882F77
:100CA00090E02B813C81880F991F820F931F05963E
:100CB000FC018081918100D4000004C08A818F5F93
:100CC0008A83B7CF26960FB6F894DEBF0FBECDBF8E
:100CD000DF91CF911F910F910895CF93DF9300D0B3
:100CE0001F92CDB7DEB79A8389837C836B8389811A
:100CF0009A81FC01848121E0280F89819A81FC017D
:100D0000248389819A81FC018481882F90E0298144
:100D10003A81880F991F820F931F05962B813C8182
:100D2000FC013183208300000F900F900F900F90F3
:100D3000DF91CF910895CF93DF93CDB7DEB727979B
:100D40000FB6F894DEBF0FBECDBF9D838C837F832B
:100D50006E831A8219821B828B818930B0F58E8155
:100D60009F81FC0180819181A281B3812B81222FFF
:100D700030E0220F331F04C0B695A795979587954D
:100D80002A95D2F781709927AA27BB2721E0892BC2
:100D90008A2B8B2B09F020E0822F90E0A0E0B0E0BE
:100DA0002B81222F30E004C0880F991FAA1FBB1F80
:100DB0002A95D2F79C0189819A81822B932B9A8361
:100DC00089838B818F5F8B83C7CF89819A81279697
:100DD0000FB6F894DEBF0FBECDBFDF91CF9108955F
:100DE000CF93DF9300D01F92CDB7DEB79A8389836C
:100DF0007C836B838B819C81FC0180819181807ECF
:100E0000917096958795929582958F7089279F709E
:100E10008927069711F481E001C080E00F900F90C0
:100E20000F900F90DF91CF910895CF93DF931F9292
:100E30001F92CDB7DEB79A83898389819A81FC019D
:100E4000208189819A81FC018181281711F480E039
:100E500015C089819A81FC018081882F90E09C01D6
:100E60002F5F3F4F89819A81FC018181882F90E01B
:100E70002817390711F482E001C081E00F900F902C
:100E8000DF91CF910895CF93DF9300D01F92CDB71C
:100E9000DEB79A8389837C836B8389819A81FC0185
:100EA000208189819A81FC0181812817E9F189815A
:100EB0009A81FC01818121E0280F89819A81FC01BE
:100EC000218389819A81FC0191818DEC989F812DEC
:100ED0001124282F22952F70822F880F880F282FFA
:100EE000220F220F820F292F281B89819A81FC0152
:100EF000218389819A81FC018181882F90E0298159
:100F00003A81880F991F880F991F820F931F0396AC
:100F1000FC0180819181A281B3812B813C81F90107
:100F200080839183A283B38300000F900F900F9072
:100F30000F90DF91CF910895CF93DF9300D01F9250
:100F4000CDB7DEB79A8389837C836B8389819A814D
:100F500065D189819A812B813C81FC0134A723A72B
:100F600084E290E024E230E0F90120812068FC0175
:100F700020838EE690E021E0FC01208384E490E071
:100F800024E430E0F90120812264FC01208387E41D
:100F900090E021E4FC01208385E490E025E430E04A
:100FA000F90120812160FC01208300000F900F9047
:100FB0000F900F90DF91CF910895CF93DF9300D0E2
:100FC00000D0CDB7DEB79C838B836D834E838D813C
:100FD000882F90E09A83898389819A819C01220FCE
:100FE000331F22953295307F3227207F32278E8122
:100FF000882F90E0822B932B9A83898389819A8111
:1010000026960FB6F894DEBF0FBECDBFDF91CF910D
:101010000895CF93DF93CDB7DEB729970FB6F89435
:10102000DEBF0FBECDBF9F838E837987688719820D
:101030001A821B821C821D828D81893008F045C076
:101040008D81882F90E09C01220F331F8885998520
:10105000FC01808191814D81442F50E068E070E077
:10106000FB01E41BF50BAF0102C0969587954A95ED
:10107000E2F7CC01A0E0B0E081709927AA27BB2756
:1010800041E0892B8A2B8B2B09F040E0842F90E0E4
:10109000280F391F81E090E0A0E0B0E004C0880F85
:1010A000991FAA1FBB1F2A95D2F729813A814B812C
:1010B0005C81822B932BA42BB52B89839A83AB83E2
:1010C000BC838D818F5F8D83B7CF89819A81AB81FE
:1010D000BC81880F991FAA1FBB1F880F991FAA1FC9
:1010E000BB1F880F991FAA1FBB1F880F991FAA1F1C
:1010F000BB1F876089839A83AB83BC8389819A8174
:10110000AB81BC81BC01CD0129960FB6F894DEBF3E
:101110000FBECDBFDF91CF910895CF93DF93CDB7B1
:10112000DEB729970FB6F894DEBF0FBECDBF9E8302
:101130008D836F83488729878D819E81A3D0982FC7
:1011400081E0923009F480E08823E1F08D819E8176
:1011500048856F8132DF9C838B838D819E819E01C8
:101160002D5F3F4FB901BCD08D819E8149856F8134
:1011700024DF9A8389838D819E819E012F5F3F4F5B
:10118000B901AED0000029960FB6F894DEBF0FBEAD
:10119000CDBFDF91CF9108950F931F93CF93DF932E
:1011A0001F921F92CDB7DEB79A83898389819A8176
:1011B00069D0882359F089819A81FC0183A594A57F
:1011C000FC018385823011F481E001C080E0882336
:1011D000E9F089819A8163EA72E0E0D089819A819D
:1011E000FC0103A514A589819A8163EA72E011DFED
:1011F000DC01CB01F80180839183A283B3838981D1
:101200009A81FC0183A594A5FC01138600000F9030
:101210000F90DF91CF911F910F910895CF93DF939E
:1012200000D01F92CDB7DEB79C838B838B819C81CE
:10123000FC0110828B819C81FC0111828B819C813D
:10124000FC0112821A82198289819A81449794F44E
:101250002B813C8189819A81880F991F820F931F6E
:101260000396FC011182108289819A8101969A83EA
:101270008983EACF00000F900F900F900F90DF91BD
:10128000CF910895CF93DF931F921F92CDB7DEB712
:101290009A83898389819A81FC01208189819A813D
:1012A000FC018181281711F480E015C089819A81A1
:1012B000FC018081882F90E09C012F5F3F4F898146
:1012C0009A81FC018181882F90E02817390711F459
:1012D00082E001C081E00F900F90DF91CF910895DF
:1012E000CF93DF9300D01F92CDB7DEB79A83898367
:1012F0007C836B8389819A81FC018081882F90E0B7
:10130000019624E130E0B90137D19C0189819A81AD
:10131000FC018181882F90E028173907B9F1898174
:101320009A81FC01808121E0280F89819A81FC014A
:10133000208389819A81FC0190818DEC989F812D79
:101340001124282F22952F70822F880F880F282F85
:10135000220F220F820F292F281B89819A81FC01DD
:10136000208389819A81FC018081882F90E02B81E4
:101370003C81F9012081318149815A81880F991F6F
:10138000840F951F0396FC013183208300000F908A
:101390000F900F900F90DF91CF910895CF93DF932F
:1013A00000D01F92CDB7DEB79A8389837C836B838D
:1013B00089819A81FC01208189819A81FC01818146
:1013C0002817B9F189819A81FC01818121E0280FD8
:1013D00089819A81FC01218389819A81FC01918113
:1013E0008DEC989F812D1124282F22952F70822F0C
:1013F000880F880F282F220F220F820F292F281BDA
:1014000089819A81FC01218389819A81FC018181F2
:10141000882F90E029813A81880F991F820F931FAE
:101420000396FC01208131818B819C81FC013183F9
:10143000208300000F900F900F900F90DF91CF91BD
:101440000895CF93DF9300D01F92CDB7DEB79A8374
:1014500089836B834C8389819A812B81FC01218351
:1014600089819A812C81FC01228389819A8121E0E2
:10147000FC01208381E290E0FC01808181E290E028
:101480002FEFFC01208300000F900F900F900F9022
:10149000DF91CF910895CF93DF931F921F92CDB725
:1014A000DEB79A83898389819A81FC0181810F90BB
:1014B0000F90DF91CF910895CF93DF931F921F92EA
:1014C000CDB7DEB79A83898389819A81FC018081B7
:1014D0008823E9F489819A8121E0FC01208382E25A
:1014E00090E022E230E0F9012081622F29813A81E7
:1014F000F9012281422F50E021E030E002C0220FAA
:10150000331F4A95E2F720952623FC012083000033
:101510000F900F90DF91CF910895CF93DF931F929B
:101520001F92CDB7DEB79A83898389819A81FC01A6
:1015300080818130D9F489819A81FC01108282E214
:1015400090E022E230E0F9012081622F29813A8186
:10155000F9012281422F50E021E030E002C0220F49
:10156000331F4A95E2F7262BFC01208300000F90E1
:101570000F90DF91CF91089597FB072E16F40094FA
:1015800006D077FD08D02DD007FC05D03EF490950D
:1015900081959F4F0895709561957F4F0895A1E2C1
:1015A0001A2EAA1BBB1BFD010DC0AA1FBB1FEE1FDD
:1015B000FF1FA217B307E407F50720F0A21BB30B28
:1015C000E40BF50B661F771F881F991F1A9469F7A4
:1015D00060957095809590959B01AC01BD01CF0100
:1015E0000895AA1BBB1B51E107C0AA1FBB1FA6176A
:1015F000B70710F0A61BB70B881F991F5A95A9F7BC
:1016000080959095BC01CD010895EE0FFF1F881FB6
:0E1610008BBF0790F691E02D1994F894FFCF50
:10161E000507090B010300000000436F6D6D616E3D
:10162E00643A2000200A53797374656D206E6F77CB
:10163E00204F4E0D0A00200A53797374656D206E8B
:0A164E006F77204F46460D0A00009A
:00000001FF
